:100000000C9464000C948C000C948C000C948C0068
:100010000C948C000C948C000C948C000C948C0030
:100020000C948C000C948C000C948C000C948C0020
:100030000C948C000C948C000C948C000C948C0010
:100040000C948C000C948C000C94A4020C948C00E6
:100050000C9414030C94EE020C948C000C948C0001
:100060000C948C000C948C000C948C000C948C00E0
:100070000C9446030C948C000C948C00000020001F
:1000800023002600290002020202020202020404E6
:10009000040404040404030303030303030301012E
:1000A0000101010101010102040810204080010248
:1000B0000408102040800102040810204080010242
:1000C000040810204080230711241FBECFEFD0E189
:1000D000DEBFCDBF11E0A0E0B1E0E6EDF9E102C086
:1000E00005900D92A437B107D9F722E0A4E7B1E05B
:1000F00001C01D92A138B207E1F710E0C4E6D0E0DC
:1001000004C02197FE010E94880AC336D107C9F7AF
:100110000E94B4030C94E90C0C940000E9ECF0E0AC
:100120008081877F808380818068808380818061F7
:1001300080831092DF011092DE011092DD01109297
:10014000DC010895E9ECF0E080818F7E808380817E
:100150008860808380818F7780831092DB0110928A
:10016000DA0108954091C7015091C801E091D00192
:10017000F091D10130E020E024173507C4F4A191BB
:10018000A817190689F4220F331F8091CC01909192
:10019000CD01280F391F93E0660F771F9A95E1F77D
:1001A000F9017183608308952F5F3F4FE5CF089574
:1001B000FB01A485B585ED91FC9111970190F0812B
:1001C000E02D682FCD01099590E080E008953FB7BC
:1001D000F8948091C1019091C201A091C301B091A6
:1001E000C40126B5A89B05C02F3F19F00196A11D9B
:1001F000B11D3FBFBA2FA92F982F8827BC01CD0171
:10020000620F711D811D911D42E0660F771F881FCF
:10021000991F4A95D1F70895AF92BF92CF92DF927E
:10022000EF92FF920F931F93CF93DF936C017B01AB
:100230008B01040F151FEB015E01AE18BF08C0173C
:10024000D10759F06991D601ED91FC910190F081AF
:10025000E02DC6010995892B79F7C501DF91CF9172
:100260001F910F91FF90EF90DF90CF90BF90AF90D4
:100270000895FC01538D448D252F30E0842F90E0AC
:10028000821B930B541710F0CF9608950197089591
:10029000FC01918D828D981761F0A28DAE0FBF2F5A
:1002A000B11D5D968C91928D9F5F9F73928F90E0B0
:1002B00008958FEF9FEF0895FC01918D828D98171F
:1002C00031F0828DE80FF11D858D90E008958FEF5C
:1002D0009FEF0895FC01918D228D892F90E0805C25
:1002E0009F4F821B91098F739927089580EE91E0AB
:1002F0000E946A0121E0892B09F420E0822F0895F1
:10030000FC01A48DA80FB92FB11DA35ABF4F2C918A
:10031000848D90E001968F739927848FA689B78981
:100320002C93A089B1898C91837080648C93938D78
:10033000848D981306C00288F389E02D80818F7D1B
:1003400080830895EF92FF920F931F93CF93DF93D3
:10035000EC0181E0888F9B8D8C8D98131AC0E88901
:10036000F989808185FF15C09FB7F894EE89FF89D0
:100370006083E889F98980818370806480839FBF6E
:1003800081E090E0DF91CF911F910F91FF90EF906E
:100390000895F62E0B8D10E00F5F1F4F0F7311277E
:1003A000E02E8C8D8E110CC00FB607FCFACFE889B9
:1003B000F989808185FFF5CFCE010E948001F1CFC0
:1003C000EB8DEC0FFD2FF11DE35AFF4FF0829FB72D
:1003D000F8940B8FEA89FB8980818062CFCFCF931D
:1003E000DF93EC01888D8823B9F0AA89BB89E8895D
:1003F000F9898C9185FD03C0808186FD0DC00FB603
:1004000007FCF7CF8C9185FFF2CF808185FFEDCF80
:10041000CE010E948001E9CFDF91CF91089580E065
:1004200090E0892B29F00E94760181110E94000042
:1004300080E090E0892B49F080E090E0892B29F062
:100440000E94000081110C94000008952091DA01AF
:100450003091DB012F5F3F4F3093DB012093DA01B6
:100460009091C80095FFFCCF8093CE000895CF9364
:10047000DF93EC010E94A2008FEF0E9426028FEF13
:100480000E9426028C2F0E94260284E00E942602EF
:1004900083E00E94260288E10E94260280E00E94FA
:1004A0002602CE014F9680950E942602DF91CF91C1
:1004B0000C948E009091C80095FFFCCF8093CE00E5
:1004C0000895FC0101900020E9F73197AF01481B26
:1004D000590BBC0180EE91E00C940C01CF93DF939B
:1004E0000E946102EC0188E191E00E9461028C0FA0
:1004F0009D1FDF91CF910895CF93DF93CDB7DEB7E6
:100500002E970FB6F894DEBF0FBECDBF88ED90E0FA
:100510009A8789871C861B8682E08C8380EE91E017
:100520009E878D87AE01495E5F4F6BE171E0CE0122
:1005300001960E9450072E960FB6F894DEBF0FBEAC
:10054000CDBFDF91CF9108951F920F920FB60F92FA
:1005500011242F933F938F939F93AF93BF938091D9
:10056000BD019091BE01A091BF01B091C001309139
:10057000BC0123E0230F2D3768F126E8230F0296F4
:10058000A11DB11D2093BC018093BD019093BE01BC
:10059000A093BF01B093C0018091C1019091C201AD
:1005A000A091C301B091C4010196A11DB11D80931A
:1005B000C1019093C201A093C301B093C401BF9144
:1005C000AF919F918F913F912F910F900FBE0F9000
:1005D0001F9018950196A11DB11DD4CF1F920F92A7
:1005E0000FB60F9211242F933F934F935F936F9306
:1005F0007F938F939F93AF93BF93EF93FF9380EE7F
:1006000091E00E948001FF91EF91BF91AF919F9186
:100610008F917F916F915F914F913F912F910F90AB
:100620000FBE0F901F9018951F920F920FB60F924A
:1006300011242F938F939F93EF93FF93E091F001F9
:10064000F091F1018081E091F601F091F70182FDD6
:100650001BC090818091F9018F5F8F732091FA0107
:10066000821741F0E091F901F0E0E052FE4F958FE2
:100670008093F901FF91EF919F918F912F910F90AE
:100680000FBE0F901F9018958081F4CF1F920F928C
:100690000FB60F9211242F934F935F938F939F93D5
:1006A000EF93FF932091CE008091DE019091DF01C6
:1006B000AC014F5F5F4F5093DF014093DE018C58D8
:1006C0009E4FFC012083FF91EF919F918F915F914D
:1006D0004F912F910F900FBE0F901F901895CF92B2
:1006E000DF92EF92FF920F931F93E82FF92F05C02F
:1006F000015011092109310961F190819623941764
:10070000B9F305C0015011092109310911F1908196
:1007100096239413F7CFC12CD12CE12CF12C0AC0D5
:100720008FEFC81AD80AE80AF80A0C151D052E051D
:100730003F0579F080818623841791F36C2D7D2D00
:100740008E2D9F2D1F910F91FF90EF90DF90CF90F6
:10075000089560E070E080E090E01F910F91FF90BD
:10076000EF90DF90CF900895CF93DF93CDB7DEB7B2
:10077000A2970FB6F894DEBF0FBECDBF789484B5B4
:10078000836084BD85B5836085BD80916E00816086
:1007900080936E0092E0909381008091810081604F
:1007A000809381008091800081608093800080919F
:1007B000B10084608093B1008091B000816080932B
:1007C000B00087E880937A001092C100E091F001B8
:1007D000F091F1019083E091EC01F091ED01108234
:1007E000E091EE01F091EF018FEC80831092F8011F
:1007F000E091F401F091F50186E08083E091F2014F
:10080000F091F301808188698083E091F201F09199
:10081000F30180818F7D80831092CD0081E08093F1
:10082000CC008091C80082608093C8001092DF01E4
:100830001092DE011092DD011092DC011092DB01BA
:100840001092DA015A9A0E948E0082E090E00E9493
:10085000C40B9093D1018093D00184E090E00E947A
:10086000C40B9093CB018093CA0184E090E00E9476
:10087000C40B9093CD018093CC0184E090E00E9462
:10088000C40B9093CF018093CE0182E090E09093CF
:10089000C8018093C70190E080E020E032E0409101
:1008A000C7015091C80184179507F4F4E091D00175
:1008B000F091D101E80FF91F41E0480F4083AC01EE
:1008C000440F551FA091CA01B091CB01A40FB51FD1
:1008D0002D933C93E091CC01F091CD01E40FF51FF5
:1008E000318320830196DBCF1092C5011092C9019C
:1008F0002FB7F8948091BD019091BE01A091BF01E6
:10090000B091C0012FBF8093D2019093D301A093E7
:10091000D401B093D50189E291E00E946E02C12C0E
:10092000D12C7601C3949AE0492E512C612C712C64
:100930000E94A2008FEF0E9426028FEF0E942602E3
:100940008C2D0E94260284E00E94260282E00E94F2
:10095000260283E00E94260281E00E942602C60150
:100960000A9680950E9426020E948E001AA280E0BC
:100970009AA19730B0F450E040E0282F30E06AA10F
:10098000E091DE01F091DF01620F732F711D6E1790
:100990007F0709F03CC24F5F5F4F4A3E93E0590723
:1009A00071F78AA190E082E02AA1821778F4E82FFB
:1009B000F0E0EC56FE4F2081920F8F5FF5CF9091C3
:1009C00094019F3F09F433C28F5FD2CF9F3F11F54F
:1009D0008FE591E00E94610219A2A70196018E01A4
:1009E0000F5D1F4FCA01B901A30192010E942F0A96
:1009F000605DD8016E938D012115310541055105CA
:100A000089F7109719F0CD010E94610288E191E009
:100A10000E946102BFEFCB1ADB0AEB0AFB0AEEEF82
:100A2000CE16D104E104F10409F082CF80E491E014
:100A30000E946E0214E6412E512C612C712C212C47
:100A400033243394E6EAF0E06491E6E8F0E0849140
:100A5000E82FF0E0EE0FFF1FE458FF4F85919491CF
:100A600000E412E42FE030E0462F0E946F0361158E
:100A700071058105910529F06F5F7F4F8F4F9F4F63
:100A80009F706093B8017093B9018093BA019093FD
:100A9000BB016093B4017093B5018093B60190934C
:100AA000B7019F938F937F936F932BE131E03F9337
:100AB0002F93A0EEB1E0BF93AF930E947C026091B0
:100AC000B8017091B9018091BA019091BB010E9467
:100AD000360B20E030E048E453E40E948E0A0E9486
:100AE000000B9B01AC01AFEFB3E00E94ED090FB624
:100AF000F894DEBF0FBECDBFA30192010E94CE09C4
:100B00004901232BF9F06091B4017091B5018091F6
:100B1000B6019091B7010E94360B20E030E048E426
:100B200053E40E948E0A0E94000B9B01AC01AFEFC0
:100B3000B3E00E94ED09A30192010E94CE09690170
:100B4000232B79F48FE491E00E946E0281E090E023
:100B50000E94370282E090E00E9437020E940F025A
:100B600071CFB40181E090E00E94B200B60182E052
:100B700090E00E94B2002FB7F8948091BD0190914F
:100B8000BE01A091BF01B091C0012FBF8093D201DF
:100B90009093D301A093D401B093D501E091CE01FD
:100BA000F091CF016091CC017091CD010091CA010B
:100BB0001091CB0150E040E08091C7019091C801B5
:100BC00048175907DCF4DB012D913D91BD01D80197
:100BD0008D919D918D018217930750F42F5F3F4FA8
:100BE000281B390B318320834F5F5F4F3296E4CF50
:100BF0000196821B930B91838083F6CFB1E0B09373
:100C0000C5018091C501882309F4A8CF2091C701AF
:100C10003091C8014FB7F8948091BD019091BE0109
:100C2000A091BF01B091C0014FBF4091D20150913E
:100C3000D3016091D4017091D501841B950BA60B53
:100C4000B70B8197A105B10528F34FB7F8948091B0
:100C5000BD019091BE01A091BF01B091C0014FBFF5
:100C60008093D2019093D301A093D401B093D50186
:100C7000C090CE01D090CF01E091CA01F091CB019C
:100C8000E090CC01F090CD01B12CA12C8091C70156
:100C90009091C801A816B90694F5D7010D911D9140
:100CA0007D0160817181A801461B570B39F42150E9
:100CB0003109BFEFAB1ABB0A3296E8CFC501880FE6
:100CC000991F8C0D9D1DDC018D919C9114161506AC
:100CD0005CF4481759071CF411830083E8CF860F92
:100CE000971F91838083E5CF51954195510948170E
:100CF000590794F3681B790B71836083DACF12165E
:100D0000130614F01092C5018C01000F111F080F7B
:100D1000191F6801EBE5CE1AEEEFDE0A8091C900DB
:100D20008F7E8093C9008091C90088608093C9003C
:100D30008091C9008F778093C9001092DB011092D7
:100D4000DA018FEF0E945A028FEF0E945A028EEF53
:100D50000E945A0284E0800F0E945A0283E80E9497
:100D60005A028EE10E945A0282E00E945A0210E06A
:100D700000E08091C7019091C801081719076CF530
:100D8000C801880F991FE091CA01F091CB01E80FCB
:100D9000F91FE080F18033E0F694E7943A95E1F7AB
:100DA000AF2CBB24A7FCBA94E091D001F091D10103
:100DB000E00FF11F808195012E0D311D280F311D8F
:100DC000C20ED31E0E945A028E2D0E945A028A2DF4
:100DD0000E945A020F5F1F4FCCCFC601B1010E9483
:100DE000600A80950E945A020E948E000E94E700CD
:100DF0006B017C010E94E7006C197D098E099F0937
:100E0000683E73408105910508F0FBCEF3CF9AA1AF
:100E1000EAA1F0E0EC56FE4F2C583E4F290F311D51
:100E2000D9019C9190839AA1992309F4C8CD9AA1E4
:100E3000923029F4909196019F3F09F4C5CD9AA173
:100E40009F5F9AA395CDE0EEF1E01382128288EEC7
:100E500093E0A0E0B0E084839583A683B7838AE023
:100E600091E09183808385EC90E09587848784EC82
:100E700090E09787868780EC90E0918B808B81EC67
:100E800090E0938B828B82EC90E0958B848B86EC48
:100E900090E0978B868B118E128E138E148E089590
:100EA000ABE0B0E0E6E5F7E00C94F8097C013B012B
:100EB0008A01FC0117821682838181FFC8C1CE019D
:100EC00001965C01F7019381F30193FD859193FFF6
:100ED00081913F01882309F453C1853239F493FD90
:100EE000859193FF81913F01853229F4B70190E00C
:100EF0000E944009E7CF912C212C312CFFE1F31502
:100F000038F08B3211F190F4803209F1833229F1FB
:100F100037FC3CC020ED280F2A3050F536FE20C0AB
:100F20008AE0989E200D1124922E06C08D3291F0F9
:100F3000803371F7689430F8F30193FD859193FF46
:100F400081913F018111DACF21C0689431F8689412
:100F500032F8F2CF689433F8EFCF689434F8ECCFDE
:100F6000EAE02E9E200D1124222E689435F8E4CF5D
:100F70008E3229F436FC04C1689436F8DDCF8C3605
:100F800019F4689437F8D8CF8836B1F2982F9F7D3E
:100F900095549330E0F08336A1F18337C1F1833566
:100FA00009F063C02801F2E04F0E511CF801C08027
:100FB000D180692D70E036FC02C06FEF7FEFC60173
:100FC0000E942A094C01689437F882010AC00C5F1C
:100FD0001F4FFFE3F98388248394912C6501E894E3
:100FE00037F833FE2DC0522C8114910471F5552031
:100FF00009F468CFB70180E290E00E9440095A945A
:10100000F6CFF801808189830E5F1F4FE4CF28015E
:10101000F2E04F0E511CF801C080D180692D70E0C4
:1010200036FC02C06FEF7FEFC6010E9435094C010C
:101030008201D5CFB70180E290E00E9440092A9456
:101040002814190409F0B0F7CECFF60137FC8591CA
:1010500037FE81916F01B70190E00E944009511065
:101060005A94F1E08F1A9108BFCF843619F089366F
:1010700009F077C0F80137FE6BC060817181828111
:1010800093810C5F1F4FF32DFF763F2E97FF09C012
:1010900090958095709561957F4F8F4F9F4F689485
:1010A00037F82AE030E0A5010E947009C82ECA185E
:1010B0008C2C432C36FE0CC0E89440F8C91440F444
:1010C00034FE05C032FC03C0F32DFE7E4F2E892C6A
:1010D00044FE95C0FE01EC0DF11D8081803309F0C6
:1010E00087C0242D297E422E842D8870582E43FCE3
:1010F00095C040FE8FC09C2C821418F42C0C922CAE
:10110000981844FE91C0B70180E390E00E94400926
:1011100042FE09C088E790E041FE02C088E590E009
:10112000B7010E944009C91408F48AC0CA94D12C9E
:101130009FEFC91AD90ACA0CDB1CF60182916F0114
:10114000B70190E00E944009AC14BD04B1F74FCF45
:1011500060817181072E000C880B990B0E5F1F4F69
:1011600092CFD32CE894D4F82AE030E0853739F1D7
:10117000232D297FD22E8F3601F148F48835A9F02E
:10118000F701868197812B96E2E10C94140A80374F
:1011900049F08837A9F7D4FE02C06894D2F820E15C
:1011A00030E00DC06894D4F8F6CF34FE03C0822F2F
:1011B0008660D82E20E132E002C028E030E0F8015D
:1011C000D7FE0FC060817181828193810C5F1F4FB8
:1011D000A5010E947009C82ECA183D2CE89437F862
:1011E00067CF6081718190E080E00E5F1F4FF0CF8C
:1011F00042FC02C0839478CF8394839475CF842D6E
:10120000867809F471CFF6CFB70180E290E00E94B2
:10121000400983948214C0F3512C73CF522C581878
:10122000821408F46ECFF8CF842D867809F47BCF32
:101230008BE241FE80E247FC8DE2B70190E071CF86
:10124000B70180E390E00E9440099A946CCF8FEF41
:101250009FEF99CFFC010590615070400110D8F7C5
:10126000809590958E0F9F1F0895FC0161507040EE
:1012700001900110D8F7809590958E0F9F1F0895CB
:101280000F931F93CF93DF93182F092FEB018B81BF
:1012900081FD09C01FEF0FEF812F902FDF91CF91BC
:1012A0001F910F91089582FF14C02E813F818C8180
:1012B0009D81281739073CF4E881F981CF01019617
:1012C0009983888310838E819F8101969F838E836B
:1012D000E3CFE885F985812F0995892BA1F3DACF32
:1012E000FA01AA27283051F1203181F1E8946F9357
:1012F0006E7F6E5F7F4F8F4F9F4FAF4FB1E03ED0FD
:10130000B4E03CD0670F781F891F9A1FA11D680F9A
:10131000791F8A1F911DA11D6A0F711D811D911DCD
:10132000A11D20D009F468943F912AE0269F112442
:101330003019305D3193DEF6CF010895462F4770A6
:10134000405D4193B3E00FD0C9F7F6CF462F4F7001
:10135000405D4A3318F0495D31FD4052419302D05F
:10136000A9F7EACFB4E0A695979587957795679505
:10137000BA95C9F700976105710508959B01AC0105
:101380000A2E06945795479537952795BA95C9F72C
:10139000620F731F841F951FA01D0895052E97FBD4
:1013A0001EF400940E94E50957FD07D00E942F0A01
:1013B00007FC03D04EF40C94E50950954095309508
:1013C00021953F4F4F4F5F4F0895909580957095B1
:1013D00061957F4F8F4F9F4F08950E94510AA59F9F
:1013E000900DB49F900DA49F800D911D1124089520
:1013F0002F923F924F925F926F927F928F929F9225
:10140000AF92BF92CF92DF92EF92FF920F931F9312
:10141000CF93DF93CDB7DEB7CA1BDB0B0FB6F894C3
:10142000DEBF0FBECDBF09942A88398848885F8403
:101430006E847D848C849B84AA84B984C884DF8074
:10144000EE80FD800C811B81AA81B981CE0FD11D58
:101450000FB6F894DEBF0FBECDBFED010895A1E237
:101460001A2EAA1BBB1BFD010DC0AA1FBB1FEE1F1E
:10147000FF1FA217B307E407F50720F0A21BB30B69
:10148000E40BF50B661F771F881F991F1A9469F7E5
:1014900060957095809590959B01AC01BD01CF0141
:1014A0000895A29FB001B39FC001A39F700D811D3D
:1014B0001124911DB29F700D811D1124911D08955D
:1014C00097FB072E16F4009407D077FD09D00E94F1
:1014D000740A07FC05D03EF4909581959F4F0895BE
:1014E000709561957F4F0895AA1BBB1B51E107C002
:1014F000AA1FBB1FA617B70710F0A61BB70B881FA4
:10150000991F5A95A9F780959095BC01CD01089532
:10151000EE0FFF1F0590F491E02D09940E94A20A9E
:101520000C948A0B0E94830B58F00E947C0B40F0B5
:1015300029F45F3F29F00C94730B51110C94BE0BEE
:101540000C94790B0E949B0B68F39923B1F35523FC
:1015500091F3951B550BBB27AA27621773078407C6
:1015600038F09F5F5F4F220F331F441FAA1FA9F35C
:1015700035D00E2E3AF0E0E832D091505040E6954A
:10158000001CCAF72BD0FE2F29D0660F771F881FAB
:10159000BB1F261737074807AB07B0E809F0BB0B9E
:1015A000802DBF01FF2793585F4F3AF09E3F5105B2
:1015B00078F00C94730B0C94BE0B5F3FE4F3983EF1
:1015C000D4F3869577956795B795F7959F5FC9F79B
:1015D000880F911D9695879597F90895E1E0660F1C
:1015E000771F881FBB1F621773078407BA0720F095
:1015F000621B730B840BBA0BEE1F88F7E0950895FE
:101600000E94070B6894B1110C94BE0B08950E94C0
:10161000A30B88F09F5798F0B92F9927B751B0F0D6
:10162000E1F0660F771F881F991F1AF0BA95C9F766
:1016300014C0B13091F00E94BD0BB1E008950C943C
:10164000BD0B672F782F8827B85F39F0B93FCCF3EF
:10165000869577956795B395D9F73EF490958095E3
:10166000709561957F4F8F4F9F4F0895E89409C003
:1016700097FB3EF490958095709561957F4F8F4FC5
:101680009F4F9923A9F0F92F96E9BB279395F695DB
:10169000879577956795B795F111F8CFFAF4BB0F59
:1016A00011F460FF1BC06F5F7F4F8F4F9F4F16C0BD
:1016B000882311F096E911C0772321F09EE8872F47
:1016C000762F05C0662371F096E8862F70E060E003
:1016D0002AF09A95660F771F881FDAF7880F96957C
:1016E000879597F9089597F99F6780E870E060E023
:1016F00008959FEF80EC089500240A9416161706AB
:1017000018060906089500240A94121613061406F2
:1017100005060895092E0394000C11F4882352F055
:10172000BB0F40F4BF2B11F460FF04C06F5F7F4F0D
:101730008F4F9F4F089557FD9058440F551F59F0F4
:101740005F3F71F04795880F97FB991F61F09F3FAE
:1017500079F087950895121613061406551FF2CFD7
:101760004695F1DF08C0161617061806991FF1CF27
:1017700086957105610508940895E894BB2766274E
:101780007727CB0197F908950F931F93CF93DF939A
:101790008230910510F482E090E0E0917F02F091B8
:1017A000800230E020E0B0E0A0E0309799F421150D
:1017B000310509F44AC0281B390B24303105D8F50E
:1017C0008A819B816115710589F1FB019383828375
:1017D000FE0111C0408151810281138148175907D0
:1017E000E0F04817590799F4109761F012960C939E
:1017F000129713961C933296CF01DF91CF911F91D0
:101800000F91089500937F0210938002F4CF211569
:10181000310551F04217530738F0A901DB019A0155
:10182000BD01DF01F801C1CFEF01F9CF9093800234
:1018300080937F02CDCFFE01E20FF31F819391933E
:101840002250310939832883D7CF20917D023091EE
:101850007E02232B41F42091020130910301309349
:101860007E0220937D02209100013091010121151B
:10187000310541F42DB73EB7409104015091050167
:10188000241B350BE0917D02F0917E02E217F307F5
:10189000A0F42E1B3F0B2817390778F0AC014E5FE0
:1018A0005F4F2417350748F04E0F5F1F50937E029D
:1018B00040937D02819391939FCFF0E0E0E09CCF35
:1018C000CF93DF930097E9F0FC01329713821282E5
:1018D000A0917F02B0918002ED0130E020E01097EE
:1018E000A1F420813181820F931F20917D023091DC
:1018F0007E022817390709F061C0F0937E02E09359
:101900007D02DF91CF910895EA01CE17DF07E8F558
:101910004A815B819E0141155105B1F7E901FB83C5
:10192000EA8349915991C40FD51FEC17FD0761F463
:10193000808191810296840F951FE90199838883A4
:10194000828193819B838A83F0E0E0E012968D91FF
:101950009C9113970097B9F52D913C911197CD016A
:101960000296820F931F20917D0230917E022817EC
:10197000390739F6309751F51092800210927F02A4
:10198000B0937E02A0937D02BCCFD383C2834081FB
:101990005181840F951FC817D90761F44E5F5F4FBF
:1019A00088819981480F591F518340838A819B8187
:1019B000938382832115310509F0B0CFF093800223
:1019C000E0937F029ECFFD01DC01C0CF1382128223
:0619D000D7CFF894FFCF11
:1019D60000008102800000000000A2010C01390114
:1019E600EF016A0148015C010D0A00484947482099
:1019F60074696D653A202564005363616E6E696E85
:101A06006720666F7220736572766F732E2E2E00B6
:101A16005363616E20636F6D706C6574652E005341
:101A26006572766F732052656C6178696E670053D4
:101A36006572766F20666F756E6420617420494406
:041A46003A20000042
:00000001FF
